{"abi":[{"type":"function","name":"INSERTION_SORT_ID","inputs":[],"outputs":[{"name":"","type":"bytes32","internalType":"bytes32"}],"stateMutability":"view"}],"bytecode":{"object":"0x60d961004c600b8282823980515f1a6073146040577f4e487b71000000000000000000000000000000000000000000000000000000005f525f60045260245ffd5b305f52607381538281f3fe73000000000000000000000000000000000000000030146080604052600436106032575f3560e01c806304057601146036575b5f5ffd5b603c6050565b60405160479190608c565b60405180910390f35b7fcce945b96e7b35d462208b9d1f035e2a041a58a7601a1df70df0f196da1ad3255f1b81565b5f819050919050565b6086816076565b82525050565b5f602082019050609d5f830184607f565b9291505056fea26469706673582212208b02047622f4bc2d0c8902b9cabeee35a0c043586c6882b69224ad178b5d882d64736f6c634300081e0033","linkReferences":{}},"methodIdentifiers":{"INSERTION_SORT_ID()":"04057601"},"id":0}