{"abi":[{"type":"function","name":"INSERTION_SORT_ID","inputs":[],"outputs":[{"name":"","type":"bytes32","internalType":"bytes32"}],"stateMutability":"view"}],"bytecode":{"object":"0x60d961004c600b8282823980515f1a6073146040577f4e487b71000000000000000000000000000000000000000000000000000000005f525f60045260245ffd5b305f52607381538281f3fe73000000000000000000000000000000000000000030146080604052600436106032575f3560e01c806304057601146036575b5f5ffd5b603c6050565b60405160479190608c565b60405180910390f35b7fb5545e692de1264fccb511f73be8b259bf53318bf52a7e91b453b597457da77e5f1b81565b5f819050919050565b6086816076565b82525050565b5f602082019050609d5f830184607f565b9291505056fea2646970667358221220d8022077eac02a3f2f5326b7a48aebbec67288b6df85da225ba4a247c6677aab64736f6c634300081e0033","linkReferences":{}},"methodIdentifiers":{"INSERTION_SORT_ID()":"04057601"},"id":1}