{"abi":[{"type":"function","name":"COUNTING_SORT_ID","inputs":[],"outputs":[{"name":"","type":"bytes32","internalType":"bytes32"}],"stateMutability":"view"}],"bytecode":{"object":"0x60d961004c600b8282823980515f1a6073146040577f4e487b71000000000000000000000000000000000000000000000000000000005f525f60045260245ffd5b305f52607381538281f3fe73000000000000000000000000000000000000000030146080604052600436106032575f3560e01c806327588fbf146036575b5f5ffd5b603c6050565b60405160479190608c565b60405180910390f35b7f8b57e47c4898c3deac413acc272ac4f85a3d480044c9a102b5c77e58b0df585f5f1b81565b5f819050919050565b6086816076565b82525050565b5f602082019050609d5f830184607f565b9291505056fea2646970667358221220c07ae76de23cd408e9d115516390baefd7c29bcfaae46fdfedcad30ddcfb067364736f6c634300081e0033","linkReferences":{}},"methodIdentifiers":{"COUNTING_SORT_ID()":"27588fbf"},"id":2}