{"abi":[{"type":"constructor","inputs":[{"name":"verifier","type":"address","internalType":"contract IRiscZeroVerifier"},{"name":"imageId","type":"bytes32","internalType":"bytes32"},{"name":"_imageUrl","type":"string","internalType":"string"}],"stateMutability":"nonpayable"},{"type":"function","name":"SELECTOR","inputs":[],"outputs":[{"name":"","type":"bytes4","internalType":"bytes4"}],"stateMutability":"view"},{"type":"function","name":"VERIFIER","inputs":[],"outputs":[{"name":"","type":"address","internalType":"contract IRiscZeroVerifier"}],"stateMutability":"view"},{"type":"function","name":"VERSION","inputs":[],"outputs":[{"name":"","type":"string","internalType":"string"}],"stateMutability":"view"},{"type":"function","name":"containsRoot","inputs":[{"name":"root","type":"bytes32","internalType":"bytes32"}],"outputs":[{"name":"","type":"bool","internalType":"bool"}],"stateMutability":"view"},{"type":"function","name":"imageInfo","inputs":[],"outputs":[{"name":"","type":"bytes32","internalType":"bytes32"},{"name":"","type":"string","internalType":"string"}],"stateMutability":"view"},{"type":"function","name":"submitMerkleRoot","inputs":[{"name":"root","type":"bytes32","internalType":"bytes32"},{"name":"seal","type":"bytes","internalType":"bytes"}],"outputs":[],"stateMutability":"nonpayable"},{"type":"function","name":"verify","inputs":[{"name":"seal","type":"bytes","internalType":"bytes"},{"name":"imageId","type":"bytes32","internalType":"bytes32"},{"name":"journalDigest","type":"bytes32","internalType":"bytes32"}],"outputs":[],"stateMutability":"view"},{"type":"function","name":"verifyIntegrity","inputs":[{"name":"receipt","type":"tuple","internalType":"struct Receipt","components":[{"name":"seal","type":"bytes","internalType":"bytes"},{"name":"claimDigest","type":"bytes32","internalType":"bytes32"}]}],"outputs":[],"stateMutability":"view"},{"type":"event","name":"VerifiedRoot","inputs":[{"name":"root","type":"bytes32","indexed":true,"internalType":"bytes32"},{"name":"seal","type":"bytes","indexed":false,"internalType":"bytes"}],"anonymous":false},{"type":"error","name":"SelectorMismatch","inputs":[{"name":"received","type":"bytes4","internalType":"bytes4"},{"name":"expected","type":"bytes4","internalType":"bytes4"}]},{"type":"error","name":"VerificationFailed","inputs":[]}],"bytecode":{"object":"0x60e060405234801561000f575f5ffd5b506040516122153803806122158339818101604052810190610031919061038f565b8273ffffffffffffffffffffffffffffffffffffffff1660808173ffffffffffffffffffffffffffffffffffffffff16815250508160c08181525050805f908161007b919061060b565b5061008b826100d860201b60201c565b7bffffffffffffffffffffffffffffffffffffffffffffffffffffffff191660a0817bffffffffffffffffffffffffffffffffffffffffffffffffffffffff191681525050505050610880565b5f6002806040516100e890610754565b602060405180830381855afa158015610103573d5f5f3e3d5ffd5b5050506040513d601f19601f820116820180604052508101906101269190610768565b836008600161ffff16901b604051602001610143939291906107f4565b60405160208183030381529060405260405161015f919061086a565b602060405180830381855afa15801561017a573d5f5f3e3d5ffd5b5050506040513d601f19601f8201168201806040525081019061019d9190610768565b9050919050565b5f604051905090565b5f5ffd5b5f5ffd5b5f73ffffffffffffffffffffffffffffffffffffffff82169050919050565b5f6101de826101b5565b9050919050565b5f6101ef826101d4565b9050919050565b6101ff816101e5565b8114610209575f5ffd5b50565b5f8151905061021a816101f6565b92915050565b5f819050919050565b61023281610220565b811461023c575f5ffd5b50565b5f8151905061024d81610229565b92915050565b5f5ffd5b5f5ffd5b5f601f19601f8301169050919050565b7f4e487b71000000000000000000000000000000000000000000000000000000005f52604160045260245ffd5b6102a18261025b565b810181811067ffffffffffffffff821117156102c0576102bf61026b565b5b80604052505050565b5f6102d26101a4565b90506102de8282610298565b919050565b5f67ffffffffffffffff8211156102fd576102fc61026b565b5b6103068261025b565b9050602081019050919050565b8281835e5f83830152505050565b5f61033361032e846102e3565b6102c9565b90508281526020810184848401111561034f5761034e610257565b5b61035a848285610313565b509392505050565b5f82601f83011261037657610375610253565b5b8151610386848260208601610321565b91505092915050565b5f5f5f606084860312156103a6576103a56101ad565b5b5f6103b38682870161020c565b93505060206103c48682870161023f565b925050604084015167ffffffffffffffff8111156103e5576103e46101b1565b5b6103f186828701610362565b9150509250925092565b5f81519050919050565b7f4e487b71000000000000000000000000000000000000000000000000000000005f52602260045260245ffd5b5f600282049050600182168061044957607f821691505b60208210810361045c5761045b610405565b5b50919050565b5f819050815f5260205f209050919050565b5f6020601f8301049050919050565b5f82821b905092915050565b5f600883026104be7fffffffffffffffffffffffffffffffffffffffffffffffffffffffffffffffff82610483565b6104c88683610483565b95508019841693508086168417925050509392505050565b5f819050919050565b5f819050919050565b5f61050c610507610502846104e0565b6104e9565b6104e0565b9050919050565b5f819050919050565b610525836104f2565b61053961053182610513565b84845461048f565b825550505050565b5f5f905090565b610550610541565b61055b81848461051c565b505050565b5b8181101561057e576105735f82610548565b600181019050610561565b5050565b601f8211156105c35761059481610462565b61059d84610474565b810160208510156105ac578190505b6105c06105b885610474565b830182610560565b50505b505050565b5f82821c905092915050565b5f6105e35f19846008026105c8565b1980831691505092915050565b5f6105fb83836105d4565b9150826002028217905092915050565b610614826103fb565b67ffffffffffffffff81111561062d5761062c61026b565b5b6106378254610432565b610642828285610582565b5f60209050601f831160018114610673575f8415610661578287015190505b61066b85826105f0565b8655506106d2565b601f19841661068186610462565b5f5b828110156106a857848901518255600182019150602085019450602081019050610683565b868310156106c557848901516106c1601f8916826105d4565b8355505b6001600288020188555050505b505050505050565b5f81905092915050565b7f72697363302e536574496e636c7573696f6e52656365697074566572696669655f8201527f72506172616d6574657273000000000000000000000000000000000000000000602082015250565b5f61073e602b836106da565b9150610749826106e4565b602b82019050919050565b5f61075e82610732565b9150819050919050565b5f6020828403121561077d5761077c6101ad565b5b5f61078a8482850161023f565b91505092915050565b5f819050919050565b6107ad6107a882610220565b610793565b82525050565b5f61ffff82169050919050565b5f8160f01b9050919050565b5f6107d6826107c0565b9050919050565b6107ee6107e9826107b3565b6107cc565b82525050565b5f6107ff828661079c565b60208201915061080f828561079c565b60208201915061081f82846107dd565b600282019150819050949350505050565b5f81519050919050565b5f61084482610830565b61084e81856106da565b935061085e818560208601610313565b80840191505092915050565b5f610875828461083a565b915081905092915050565b60805160a05160c05161193a6108db5f395f8181610254015281816103a20152818161066e015261079301525f8181610189015281816104d4015261053701525f81816101ad01528181610216015261062d015261193a5ff3fe608060405234801561000f575f5ffd5b5060043610610086575f3560e01c80636691f647116100595780636691f64714610112578063ab750e751461012e578063cdc971231461014a578063ffa1ad741461016957610086565b8063053c238d1461008a57806308c84e70146100a85780631599ead5146100c657806348cbdfca146100e2575b5f5ffd5b610092610187565b60405161009f9190610bd1565b60405180910390f35b6100b06101ab565b6040516100bd9190610c64565b60405180910390f35b6100e060048036038101906100db9190610cb0565b6101cf565b005b6100fc60048036038101906100f79190610d2a565b6101ee565b6040516101099190610d6f565b60405180910390f35b61012c60048036038101906101279190610de9565b610214565b005b61014860048036038101906101439190610e46565b61037b565b005b61015261039d565b604051610160929190610f36565b60405180910390f35b610171610454565b60405161017e9190610f64565b60405180910390f35b7f000000000000000000000000000000000000000000000000000000000000000081565b7f000000000000000000000000000000000000000000000000000000000000000081565b6101eb81805f01906101e19190610f90565b836020013561048d565b50565b5f60015f8381526020019081526020015f205f9054906101000a900460ff169050919050565b7f000000000000000000000000000000000000000000000000000000000000000073ffffffffffffffffffffffffffffffffffffffff1663ab750e7583837f0000000000000000000000000000000000000000000000000000000000000000600261027e8961078f565b60405161028b9190611036565b602060405180830381855afa1580156102a6573d5f5f3e3d5ffd5b5050506040513d601f19601f820116820180604052508101906102c99190611060565b6040518563ffffffff1660e01b81526004016102e894939291906110d5565b5f6040518083038186803b1580156102fe575f5ffd5b505afa158015610310573d5f5f3e3d5ffd5b505050506001805f8581526020019081526020015f205f6101000a81548160ff021916908315150217905550827fcb874ca5a04ca17d10924a9784b666fb412b518f2394912f61f4ddf614c5de16838360405161036e929190611113565b60405180910390a2505050565b610397848461039261038d86866107fc565b61089e565b61048d565b50505050565b5f60607f00000000000000000000000000000000000000000000000000000000000000005f8080546103ce90611162565b80601f01602080910402602001604051908101604052809291908181526020018280546103fa90611162565b80156104455780601f1061041c57610100808354040283529160200191610445565b820191905f5260205f20905b81548152906001019060200180831161042857829003601f168201915b50505050509050915091509091565b6040518060400160405280600581526020017f302e372e3000000000000000000000000000000000000000000000000000000081525081565b610495610b1f565b83835f906004926104a89392919061119a565b906104b391906111ea565b7bffffffffffffffffffffffffffffffffffffffffffffffffffffffff19167f00000000000000000000000000000000000000000000000000000000000000007bffffffffffffffffffffffffffffffffffffffffffffffffffffffff1916146105935783835f9060049261052a9392919061119a565b9061053591906111ea565b7f00000000000000000000000000000000000000000000000000000000000000006040517fb8b38d4c00000000000000000000000000000000000000000000000000000000815260040161058a929190611248565b60405180910390fd5b60048484905011156105c257838360049080926105b29392919061119a565b8101906105bf91906114d6565b90505b5f7f4c4541465f544147000000000000000000000000000000000000000000000000836040516020016105f6929190611588565b6040516020818303038152906040528051906020012090505f61061c835f0151836109bb565b90505f8360200151511115610732577f000000000000000000000000000000000000000000000000000000000000000073ffffffffffffffffffffffffffffffffffffffff1663ab750e7584602001517f000000000000000000000000000000000000000000000000000000000000000060026106988661078f565b6040516106a59190611036565b602060405180830381855afa1580156106c0573d5f5f3e3d5ffd5b5050506040513d601f19601f820116820180604052508101906106e39190611060565b6040518463ffffffff1660e01b8152600401610701939291906115eb565b5f6040518083038186803b158015610717575f5ffd5b505afa158015610729573d5f5f3e3d5ffd5b50505050610787565b60015f8281526020019081526020015f205f9054906101000a900460ff16610786576040517f439cc0cd00000000000000000000000000000000000000000000000000000000815260040160405180910390fd5b5b505050505050565b60607f00000000000000000000000000000000000000000000000000000000000000007f8000000000000000000000000000000000000000000000000000000000000000836040516020016107e693929190611650565b6040516020818303038152906040529050919050565b610804610b39565b6040518060a001604052808481526020017fa3acc27117418996340b84e5a90f3ef4c49d22c79e44aad822ec9c313e1eb8e25f1b815260200160405180604001604052805f600281111561085b5761085a61168c565b5b81526020015f60ff1681525081526020015f5f1b815260200161089360405180604001604052808681526020015f5f1b815250610a0c565b815250905092915050565b5f6002806040516108ae90611703565b602060405180830381855afa1580156108c9573d5f5f3e3d5ffd5b5050506040513d601f19601f820116820180604052508101906108ec9190611060565b8360600151845f015185602001518660800151601888604001515f0151600281111561091b5761091a61168c565b5b63ffffffff16901b601889604001516020015160ff1663ffffffff16901b6008600461ffff16901b60405160200161095a98979695949392919061179b565b6040516020818303038152906040526040516109769190611036565b602060405180830381855afa158015610991573d5f5f3e3d5ffd5b5050506040513d601f19601f820116820180604052508101906109b49190611060565b9050919050565b5f5f8290505f5f90505b8451811015610a01576109f2828683815181106109e5576109e461182c565b5b6020026020010151610ae1565b915080806001019150506109c5565b508091505092915050565b5f600280604051610a1c906118a3565b602060405180830381855afa158015610a37573d5f5f3e3d5ffd5b5050506040513d601f19601f82011682018060405250810190610a5a9190611060565b835f015184602001516008600261ffff16901b604051602001610a8094939291906118b7565b604051602081830303815290604052604051610a9c9190611036565b602060405180830381855afa158015610ab7573d5f5f3e3d5ffd5b5050506040513d601f19601f82011682018060405250810190610ada9190611060565b9050919050565b5f818310610af857610af38284610b0b565b610b03565b610b028383610b0b565b5b905092915050565b5f825f528160205260405f20905092915050565b604051806040016040528060608152602001606081525090565b6040518060a001604052805f81526020015f8152602001610b58610b6a565b81526020015f81526020015f81525090565b60405180604001604052805f6002811115610b8857610b8761168c565b5b81526020015f60ff1681525090565b5f7fffffffff0000000000000000000000000000000000000000000000000000000082169050919050565b610bcb81610b97565b82525050565b5f602082019050610be45f830184610bc2565b92915050565b5f73ffffffffffffffffffffffffffffffffffffffff82169050919050565b5f819050919050565b5f610c2c610c27610c2284610bea565b610c09565b610bea565b9050919050565b5f610c3d82610c12565b9050919050565b5f610c4e82610c33565b9050919050565b610c5e81610c44565b82525050565b5f602082019050610c775f830184610c55565b92915050565b5f604051905090565b5f5ffd5b5f5ffd5b5f5ffd5b5f60408284031215610ca757610ca6610c8e565b5b81905092915050565b5f60208284031215610cc557610cc4610c86565b5b5f82013567ffffffffffffffff811115610ce257610ce1610c8a565b5b610cee84828501610c92565b91505092915050565b5f819050919050565b610d0981610cf7565b8114610d13575f5ffd5b50565b5f81359050610d2481610d00565b92915050565b5f60208284031215610d3f57610d3e610c86565b5b5f610d4c84828501610d16565b91505092915050565b5f8115159050919050565b610d6981610d55565b82525050565b5f602082019050610d825f830184610d60565b92915050565b5f5ffd5b5f5ffd5b5f5ffd5b5f5f83601f840112610da957610da8610d88565b5b8235905067ffffffffffffffff811115610dc657610dc5610d8c565b5b602083019150836001820283011115610de257610de1610d90565b5b9250929050565b5f5f5f60408486031215610e0057610dff610c86565b5b5f610e0d86828701610d16565b935050602084013567ffffffffffffffff811115610e2e57610e2d610c8a565b5b610e3a86828701610d94565b92509250509250925092565b5f5f5f5f60608587031215610e5e57610e5d610c86565b5b5f85013567ffffffffffffffff811115610e7b57610e7a610c8a565b5b610e8787828801610d94565b94509450506020610e9a87828801610d16565b9250506040610eab87828801610d16565b91505092959194509250565b610ec081610cf7565b82525050565b5f81519050919050565b5f82825260208201905092915050565b8281835e5f83830152505050565b5f601f19601f8301169050919050565b5f610f0882610ec6565b610f128185610ed0565b9350610f22818560208601610ee0565b610f2b81610eee565b840191505092915050565b5f604082019050610f495f830185610eb7565b8181036020830152610f5b8184610efe565b90509392505050565b5f6020820190508181035f830152610f7c8184610efe565b905092915050565b5f5ffd5b5f5ffd5b5f5ffd5b5f5f83356001602003843603038112610fac57610fab610f84565b5b80840192508235915067ffffffffffffffff821115610fce57610fcd610f88565b5b602083019250600182023603831315610fea57610fe9610f8c565b5b509250929050565b5f81519050919050565b5f81905092915050565b5f61101082610ff2565b61101a8185610ffc565b935061102a818560208601610ee0565b80840191505092915050565b5f6110418284611006565b915081905092915050565b5f8151905061105a81610d00565b92915050565b5f6020828403121561107557611074610c86565b5b5f6110828482850161104c565b91505092915050565b5f82825260208201905092915050565b828183375f83830152505050565b5f6110b4838561108b565b93506110c183858461109b565b6110ca83610eee565b840190509392505050565b5f6060820190508181035f8301526110ee8186886110a9565b90506110fd6020830185610eb7565b61110a6040830184610eb7565b95945050505050565b5f6020820190508181035f83015261112c8184866110a9565b90509392505050565b7f4e487b71000000000000000000000000000000000000000000000000000000005f52602260045260245ffd5b5f600282049050600182168061117957607f821691505b60208210810361118c5761118b611135565b5b50919050565b5f5ffd5b5f5ffd5b5f5f858511156111ad576111ac611192565b5b838611156111be576111bd611196565b5b6001850283019150848603905094509492505050565b5f82905092915050565b5f82821b905092915050565b5f6111f583836111d4565b826112008135610b97565b925060048210156112405761123b7fffffffff00000000000000000000000000000000000000000000000000000000836004036008026111de565b831692505b505092915050565b5f60408201905061125b5f830185610bc2565b6112686020830184610bc2565b9392505050565b5f5ffd5b7f4e487b71000000000000000000000000000000000000000000000000000000005f52604160045260245ffd5b6112a982610eee565b810181811067ffffffffffffffff821117156112c8576112c7611273565b5b80604052505050565b5f6112da610c7d565b90506112e682826112a0565b919050565b5f5ffd5b5f67ffffffffffffffff82111561130957611308611273565b5b602082029050602081019050919050565b5f61132c611327846112ef565b6112d1565b9050808382526020820190506020840283018581111561134f5761134e610d90565b5b835b8181101561137857806113648882610d16565b845260208401935050602081019050611351565b5050509392505050565b5f82601f83011261139657611395610d88565b5b81356113a684826020860161131a565b91505092915050565b5f5ffd5b5f67ffffffffffffffff8211156113cd576113cc611273565b5b6113d682610eee565b9050602081019050919050565b5f6113f56113f0846113b3565b6112d1565b905082815260208101848484011115611411576114106113af565b5b61141c84828561109b565b509392505050565b5f82601f83011261143857611437610d88565b5b81356114488482602086016113e3565b91505092915050565b5f604082840312156114665761146561126f565b5b61147060406112d1565b90505f82013567ffffffffffffffff81111561148f5761148e6112eb565b5b61149b84828501611382565b5f83015250602082013567ffffffffffffffff8111156114be576114bd6112eb565b5b6114ca84828501611424565b60208301525092915050565b5f602082840312156114eb576114ea610c86565b5b5f82013567ffffffffffffffff81111561150857611507610c8a565b5b61151484828501611451565b91505092915050565b5f7fffffffffffffffff00000000000000000000000000000000000000000000000082169050919050565b5f819050919050565b61156261155d8261151d565b611548565b82525050565b5f819050919050565b61158261157d82610cf7565b611568565b82525050565b5f6115938285611551565b6008820191506115a38284611571565b6020820191508190509392505050565b5f6115bd82610ff2565b6115c7818561108b565b93506115d7818560208601610ee0565b6115e081610eee565b840191505092915050565b5f6060820190508181035f83015261160381866115b3565b90506116126020830185610eb7565b61161f6040830184610eb7565b949350505050565b5f819050919050565b5f819050919050565b61164a61164582611627565b611630565b82525050565b5f61165b8286611571565b60208201915061166b8285611639565b60208201915061167b8284611571565b602082019150819050949350505050565b7f4e487b71000000000000000000000000000000000000000000000000000000005f52602160045260245ffd5b7f72697363302e52656365697074436c61696d00000000000000000000000000005f82015250565b5f6116ed601283610ffc565b91506116f8826116b9565b601282019050919050565b5f61170d826116e1565b9150819050919050565b5f63ffffffff82169050919050565b5f8160e01b9050919050565b5f61173c82611726565b9050919050565b61175461174f82611717565b611732565b82525050565b5f61ffff82169050919050565b5f8160f01b9050919050565b5f61177d82611767565b9050919050565b6117956117908261175a565b611773565b82525050565b5f6117a6828b611571565b6020820191506117b6828a611571565b6020820191506117c68289611571565b6020820191506117d68288611571565b6020820191506117e68287611571565b6020820191506117f68286611743565b6004820191506118068285611743565b6004820191506118168284611784565b6002820191508190509998505050505050505050565b7f4e487b71000000000000000000000000000000000000000000000000000000005f52603260045260245ffd5b7f72697363302e4f757470757400000000000000000000000000000000000000005f82015250565b5f61188d600c83610ffc565b915061189882611859565b600c82019050919050565b5f6118ad82611881565b9150819050919050565b5f6118c28287611571565b6020820191506118d28286611571565b6020820191506118e28285611571565b6020820191506118f28284611784565b6002820191508190509594505050505056fea2646970667358221220c629b261fb4e49b0c053bfec6524ea12f8aab349073cf2224cd80a4ed324bc6464736f6c634300081e0033","linkReferences":{}},"methodIdentifiers":{"SELECTOR()":"053c238d","VERIFIER()":"08c84e70","VERSION()":"ffa1ad74","containsRoot(bytes32)":"48cbdfca","imageInfo()":"cdc97123","submitMerkleRoot(bytes32,bytes)":"6691f647","verify(bytes,bytes32,bytes32)":"ab750e75","verifyIntegrity((bytes,bytes32))":"1599ead5"},"id":2}