{"abi":[{"type":"function","name":"HEAP_SORT_ID","inputs":[],"outputs":[{"name":"","type":"bytes32","internalType":"bytes32"}],"stateMutability":"view"}],"bytecode":{"object":"0x60d961004c600b8282823980515f1a6073146040577f4e487b71000000000000000000000000000000000000000000000000000000005f525f60045260245ffd5b305f52607381538281f3fe73000000000000000000000000000000000000000030146080604052600436106032575f3560e01c80636ecd13f0146036575b5f5ffd5b603c6050565b60405160479190608c565b60405180910390f35b7fb5357af82c09e54dc2e4c4e9d2f6a3a777ddf6a8ef103e66fbb7c42c9ad03ae95f1b81565b5f819050919050565b6086816076565b82525050565b5f602082019050609d5f830184607f565b9291505056fea264697066735822122003e28e9cfaca7410038952cc04f5a6ff74f06759f8beb9eecc6b48a749fabfb064736f6c634300081e0033","linkReferences":{}},"methodIdentifiers":{"HEAP_SORT_ID()":"6ecd13f0"},"id":1}