{"abi":[{"type":"function","name":"HEAP_SORT_ID","inputs":[],"outputs":[{"name":"","type":"bytes32","internalType":"bytes32"}],"stateMutability":"view"}],"bytecode":{"object":"0x60d961004c600b8282823980515f1a6073146040577f4e487b71000000000000000000000000000000000000000000000000000000005f525f60045260245ffd5b305f52607381538281f3fe73000000000000000000000000000000000000000030146080604052600436106032575f3560e01c80636ecd13f0146036575b5f5ffd5b603c6050565b60405160479190608c565b60405180910390f35b7f67f71b5a0f010829d8ba96003c61670e97888d8912fe6ae311465be1797a11015f1b81565b5f819050919050565b6086816076565b82525050565b5f602082019050609d5f830184607f565b9291505056fea26469706673582212202685a639649977065f2c52562e86a74fa5a0f9d9ce02ba400f6239d0e9701e0664736f6c634300081e0033","linkReferences":{}},"methodIdentifiers":{"HEAP_SORT_ID()":"6ecd13f0"},"id":2}