{"abi":[{"type":"constructor","inputs":[{"name":"_verifier","type":"address","internalType":"contract IRiscZeroVerifier"}],"stateMutability":"nonpayable"},{"type":"function","name":"get","inputs":[],"outputs":[{"name":"","type":"int256[]","internalType":"int256[]"}],"stateMutability":"view"},{"type":"function","name":"imageId","inputs":[],"outputs":[{"name":"","type":"bytes32","internalType":"bytes32"}],"stateMutability":"view"},{"type":"function","name":"set","inputs":[{"name":"_sorted_array","type":"int256[]","internalType":"int256[]"},{"name":"seal","type":"bytes","internalType":"bytes"}],"outputs":[],"stateMutability":"nonpayable"},{"type":"function","name":"sorted_array","inputs":[{"name":"","type":"uint256","internalType":"uint256"}],"outputs":[{"name":"","type":"int256","internalType":"int256"}],"stateMutability":"view"},{"type":"function","name":"verifier","inputs":[],"outputs":[{"name":"","type":"address","internalType":"contract IRiscZeroVerifier"}],"stateMutability":"view"}],"bytecode":{"object":"0x60a060405234801561000f575f5ffd5b50604051610a82380380610a82833981810160405281019061003191906100da565b8073ffffffffffffffffffffffffffffffffffffffff1660808173ffffffffffffffffffffffffffffffffffffffff168152505050610105565b5f5ffd5b5f73ffffffffffffffffffffffffffffffffffffffff82169050919050565b5f6100988261006f565b9050919050565b5f6100a98261008e565b9050919050565b6100b98161009f565b81146100c3575f5ffd5b50565b5f815190506100d4816100b0565b92915050565b5f602082840312156100ef576100ee61006b565b5b5f6100fc848285016100c6565b91505092915050565b60805161095e6101245f395f8181610101015261019d015261095e5ff3fe608060405234801561000f575f5ffd5b5060043610610055575f3560e01c80632b7ac3f3146100595780636d4ce63c14610077578063a42ee4cb14610095578063cd3164a6146100b1578063ef3f7dd5146100e1575b5f5ffd5b6100616100ff565b60405161006e91906103d6565b60405180910390f35b61007f610123565b60405161008c91906104af565b60405180910390f35b6100af60048036038101906100aa91906106b3565b610178565b005b6100cb60048036038101906100c6919061075f565b6102b1565b6040516100d89190610799565b60405180910390f35b6100e96102d0565b6040516100f691906107ca565b60405180910390f35b7f000000000000000000000000000000000000000000000000000000000000000081565b60605f80548060200260200160405190810160405280929190818152602001828054801561016e57602002820191905f5260205f20905b81548152602001906001019080831161015a575b5050505050905090565b5f8360405160200161018a91906104af565b60405160208183030381529060405290507f000000000000000000000000000000000000000000000000000000000000000073ffffffffffffffffffffffffffffffffffffffff1663ab750e7584847fb5357af82c09e54dc2e4c4e9d2f6a3a777ddf6a8ef103e66fbb7c42c9ad03ae95f1b60028660405161020c9190610835565b602060405180830381855afa158015610227573d5f5f3e3d5ffd5b5050506040513d601f19601f8201168201806040525081019061024a9190610875565b6040518563ffffffff1660e01b815260040161026994939291906108ea565b5f6040518083038186803b15801561027f575f5ffd5b505afa158015610291573d5f5f3e3d5ffd5b50505050835f90805190602001906102aa9291906102f6565b5050505050565b5f81815481106102bf575f80fd5b905f5260205f20015f915090505481565b7fb5357af82c09e54dc2e4c4e9d2f6a3a777ddf6a8ef103e66fbb7c42c9ad03ae95f1b81565b828054828255905f5260205f20908101928215610330579160200282015b8281111561032f578251825591602001919060010190610314565b5b50905061033d9190610341565b5090565b5b80821115610358575f815f905550600101610342565b5090565b5f73ffffffffffffffffffffffffffffffffffffffff82169050919050565b5f819050919050565b5f61039e6103996103948461035c565b61037b565b61035c565b9050919050565b5f6103af82610384565b9050919050565b5f6103c0826103a5565b9050919050565b6103d0816103b6565b82525050565b5f6020820190506103e95f8301846103c7565b92915050565b5f81519050919050565b5f82825260208201905092915050565b5f819050602082019050919050565b5f819050919050565b61042a81610418565b82525050565b5f61043b8383610421565b60208301905092915050565b5f602082019050919050565b5f61045d826103ef565b61046781856103f9565b935061047283610409565b805f5b838110156104a25781516104898882610430565b975061049483610447565b925050600181019050610475565b5085935050505092915050565b5f6020820190508181035f8301526104c78184610453565b905092915050565b5f604051905090565b5f5ffd5b5f5ffd5b5f5ffd5b5f601f19601f8301169050919050565b7f4e487b71000000000000000000000000000000000000000000000000000000005f52604160045260245ffd5b61052a826104e4565b810181811067ffffffffffffffff82111715610549576105486104f4565b5b80604052505050565b5f61055b6104cf565b90506105678282610521565b919050565b5f67ffffffffffffffff821115610586576105856104f4565b5b602082029050602081019050919050565b5f5ffd5b6105a481610418565b81146105ae575f5ffd5b50565b5f813590506105bf8161059b565b92915050565b5f6105d76105d28461056c565b610552565b905080838252602082019050602084028301858111156105fa576105f9610597565b5b835b81811015610623578061060f88826105b1565b8452602084019350506020810190506105fc565b5050509392505050565b5f82601f830112610641576106406104e0565b5b81356106518482602086016105c5565b91505092915050565b5f5ffd5b5f5f83601f840112610673576106726104e0565b5b8235905067ffffffffffffffff8111156106905761068f61065a565b5b6020830191508360018202830111156106ac576106ab610597565b5b9250929050565b5f5f5f604084860312156106ca576106c96104d8565b5b5f84013567ffffffffffffffff8111156106e7576106e66104dc565b5b6106f38682870161062d565b935050602084013567ffffffffffffffff811115610714576107136104dc565b5b6107208682870161065e565b92509250509250925092565b5f819050919050565b61073e8161072c565b8114610748575f5ffd5b50565b5f8135905061075981610735565b92915050565b5f60208284031215610774576107736104d8565b5b5f6107818482850161074b565b91505092915050565b61079381610418565b82525050565b5f6020820190506107ac5f83018461078a565b92915050565b5f819050919050565b6107c4816107b2565b82525050565b5f6020820190506107dd5f8301846107bb565b92915050565b5f81519050919050565b5f81905092915050565b8281835e5f83830152505050565b5f61080f826107e3565b61081981856107ed565b93506108298185602086016107f7565b80840191505092915050565b5f6108408284610805565b915081905092915050565b610854816107b2565b811461085e575f5ffd5b50565b5f8151905061086f8161084b565b92915050565b5f6020828403121561088a576108896104d8565b5b5f61089784828501610861565b91505092915050565b5f82825260208201905092915050565b828183375f83830152505050565b5f6108c983856108a0565b93506108d68385846108b0565b6108df836104e4565b840190509392505050565b5f6060820190508181035f8301526109038186886108be565b905061091260208301856107bb565b61091f60408301846107bb565b9594505050505056fea2646970667358221220adbe51751c76ec66abee90cbbe93599854fab5fd384bc2c2ec11cc42c6753fdc64736f6c634300081e0033","linkReferences":{}},"methodIdentifiers":{"get()":"6d4ce63c","imageId()":"ef3f7dd5","set(int256[],bytes)":"a42ee4cb","sorted_array(uint256)":"cd3164a6","verifier()":"2b7ac3f3"},"id":0}