{"abi":[{"type":"function","name":"MERGE_SORT_PATH","inputs":[],"outputs":[{"name":"","type":"string","internalType":"string"}],"stateMutability":"view"}],"bytecode":{"object":"0x6101ae61004d600b8282823980515f1a6073146041577f4e487b71000000000000000000000000000000000000000000000000000000005f525f60045260245ffd5b305f52607381538281f3fe7300000000000000000000000000000000000000003014608060405260043610610034575f3560e01c806323e0a93e14610038575b5f5ffd5b610040610056565b60405161004d91906100e2565b60405180910390f35b6040518060a00160405280607681526020016101036076913981565b5f81519050919050565b5f82825260208201905092915050565b8281835e5f83830152505050565b5f601f19601f8301169050919050565b5f6100b482610072565b6100be818561007c565b93506100ce81856020860161008c565b6100d78161009a565b840191505092915050565b5f6020820190508181035f8301526100fa81846100aa565b90509291505056fe2f686f6d652f6761627269656c652f72697363302d746573742f6d657267652d736f72742f7461726765742f72697363762d67756573742f6d6574686f64732f6775657374732f72697363763332696d2d72697363302d7a6b766d2d656c662f72656c656173652f6d657267655f736f72742e62696ea2646970667358221220d7177df3a6a0f3ff4a861347648b7d8e8d7fa3a01ded8b5a1b4fe4e2136b5a3964736f6c634300081e0033","linkReferences":{}},"methodIdentifiers":{"MERGE_SORT_PATH()":"23e0a93e"},"id":37}