{"abi":[{"type":"function","name":"SUDOKU_ID","inputs":[],"outputs":[{"name":"","type":"bytes32","internalType":"bytes32"}],"stateMutability":"view"}],"bytecode":{"object":"0x60d961004c600b8282823980515f1a6073146040577f4e487b71000000000000000000000000000000000000000000000000000000005f525f60045260245ffd5b305f52607381538281f3fe73000000000000000000000000000000000000000030146080604052600436106032575f3560e01c806326ac96d5146036575b5f5ffd5b603c6050565b60405160479190608c565b60405180910390f35b7f11acfab22dffbfdc6819e458291499b5086fdc1374543504a4a9012b0199996f5f1b81565b5f819050919050565b6086816076565b82525050565b5f602082019050609d5f830184607f565b9291505056fea26469706673582212206d62f3430f19ea2c5ae568897483dddfd0b0680f22ec08a7720b48fcf56361e464736f6c634300081e0033","linkReferences":{}},"methodIdentifiers":{"SUDOKU_ID()":"26ac96d5"},"id":0}