{"abi":[{"type":"constructor","inputs":[{"name":"_verifier","type":"address","internalType":"contract IRiscZeroVerifier"}],"stateMutability":"nonpayable"},{"type":"function","name":"get","inputs":[],"outputs":[{"name":"","type":"bytes","internalType":"bytes"}],"stateMutability":"view"},{"type":"function","name":"imageId","inputs":[],"outputs":[{"name":"","type":"bytes32","internalType":"bytes32"}],"stateMutability":"view"},{"type":"function","name":"matrix","inputs":[],"outputs":[{"name":"","type":"bytes","internalType":"bytes"}],"stateMutability":"view"},{"type":"function","name":"set","inputs":[{"name":"x","type":"bytes","internalType":"bytes"},{"name":"seal","type":"bytes","internalType":"bytes"}],"outputs":[],"stateMutability":"nonpayable"},{"type":"function","name":"verifier","inputs":[],"outputs":[{"name":"","type":"address","internalType":"contract IRiscZeroVerifier"}],"stateMutability":"view"}],"bytecode":{"object":"0x60a060405234801561000f575f5ffd5b50604051610c1e380380610c1e833981810160405281019061003191906100da565b8073ffffffffffffffffffffffffffffffffffffffff1660808173ffffffffffffffffffffffffffffffffffffffff168152505050610105565b5f5ffd5b5f73ffffffffffffffffffffffffffffffffffffffff82169050919050565b5f6100988261006f565b9050919050565b5f6100a98261008e565b9050919050565b6100b98161009f565b81146100c3575f5ffd5b50565b5f815190506100d4816100b0565b92915050565b5f602082840312156100ef576100ee61006b565b5b5f6100fc848285016100c6565b91505092915050565b608051610afb6101235f395f818160ef01526102500152610afb5ff3fe608060405234801561000f575f5ffd5b5060043610610055575f3560e01c80632b7ac3f31461005957806332c2a966146100775780636d4ce63c14610095578063a18c751e146100b3578063ef3f7dd5146100cf575b5f5ffd5b6100616100ed565b60405161006e91906103fd565b60405180910390f35b61007f610111565b60405161008c9190610486565b60405180910390f35b61009d61019c565b6040516100aa9190610486565b60405180910390f35b6100cd60048036038101906100c89190610640565b61022b565b005b6100d761035d565b6040516100e491906106d1565b60405180910390f35b7f000000000000000000000000000000000000000000000000000000000000000081565b5f805461011d90610717565b80601f016020809104026020016040519081016040528092919081815260200182805461014990610717565b80156101945780601f1061016b57610100808354040283529160200191610194565b820191905f5260205f20905b81548152906001019060200180831161017757829003601f168201915b505050505081565b60605f80546101aa90610717565b80601f01602080910402602001604051908101604052809291908181526020018280546101d690610717565b80156102215780601f106101f857610100808354040283529160200191610221565b820191905f5260205f20905b81548152906001019060200180831161020457829003601f168201915b5050505050905090565b5f8360405160200161023d9190610486565b60405160208183030381529060405290507f000000000000000000000000000000000000000000000000000000000000000073ffffffffffffffffffffffffffffffffffffffff1663ab750e7584847f11acfab22dffbfdc6819e458291499b5086fdc1374543504a4a9012b0199996f5f1b6002866040516102bf9190610781565b602060405180830381855afa1580156102da573d5f5f3e3d5ffd5b5050506040513d601f19601f820116820180604052508101906102fd91906107c1565b6040518563ffffffff1660e01b815260040161031c9493929190610818565b5f6040518083038186803b158015610332575f5ffd5b505afa158015610344573d5f5f3e3d5ffd5b50505050835f908161035691906109f6565b5050505050565b7f11acfab22dffbfdc6819e458291499b5086fdc1374543504a4a9012b0199996f5f1b81565b5f73ffffffffffffffffffffffffffffffffffffffff82169050919050565b5f819050919050565b5f6103c56103c06103bb84610383565b6103a2565b610383565b9050919050565b5f6103d6826103ab565b9050919050565b5f6103e7826103cc565b9050919050565b6103f7816103dd565b82525050565b5f6020820190506104105f8301846103ee565b92915050565b5f81519050919050565b5f82825260208201905092915050565b8281835e5f83830152505050565b5f601f19601f8301169050919050565b5f61045882610416565b6104628185610420565b9350610472818560208601610430565b61047b8161043e565b840191505092915050565b5f6020820190508181035f83015261049e818461044e565b905092915050565b5f604051905090565b5f5ffd5b5f5ffd5b5f5ffd5b5f5ffd5b7f4e487b71000000000000000000000000000000000000000000000000000000005f52604160045260245ffd5b6104f58261043e565b810181811067ffffffffffffffff82111715610514576105136104bf565b5b80604052505050565b5f6105266104a6565b905061053282826104ec565b919050565b5f67ffffffffffffffff821115610551576105506104bf565b5b61055a8261043e565b9050602081019050919050565b828183375f83830152505050565b5f61058761058284610537565b61051d565b9050828152602081018484840111156105a3576105a26104bb565b5b6105ae848285610567565b509392505050565b5f82601f8301126105ca576105c96104b7565b5b81356105da848260208601610575565b91505092915050565b5f5ffd5b5f5ffd5b5f5f83601f840112610600576105ff6104b7565b5b8235905067ffffffffffffffff81111561061d5761061c6105e3565b5b602083019150836001820283011115610639576106386105e7565b5b9250929050565b5f5f5f60408486031215610657576106566104af565b5b5f84013567ffffffffffffffff811115610674576106736104b3565b5b610680868287016105b6565b935050602084013567ffffffffffffffff8111156106a1576106a06104b3565b5b6106ad868287016105eb565b92509250509250925092565b5f819050919050565b6106cb816106b9565b82525050565b5f6020820190506106e45f8301846106c2565b92915050565b7f4e487b71000000000000000000000000000000000000000000000000000000005f52602260045260245ffd5b5f600282049050600182168061072e57607f821691505b602082108103610741576107406106ea565b5b50919050565b5f81905092915050565b5f61075b82610416565b6107658185610747565b9350610775818560208601610430565b80840191505092915050565b5f61078c8284610751565b915081905092915050565b6107a0816106b9565b81146107aa575f5ffd5b50565b5f815190506107bb81610797565b92915050565b5f602082840312156107d6576107d56104af565b5b5f6107e3848285016107ad565b91505092915050565b5f6107f78385610420565b9350610804838584610567565b61080d8361043e565b840190509392505050565b5f6060820190508181035f8301526108318186886107ec565b905061084060208301856106c2565b61084d60408301846106c2565b95945050505050565b5f819050815f5260205f209050919050565b5f6020601f8301049050919050565b5f82821b905092915050565b5f600883026108b27fffffffffffffffffffffffffffffffffffffffffffffffffffffffffffffffff82610877565b6108bc8683610877565b95508019841693508086168417925050509392505050565b5f819050919050565b5f6108f76108f26108ed846108d4565b6103a2565b6108d4565b9050919050565b5f819050919050565b610910836108dd565b61092461091c826108fe565b848454610883565b825550505050565b5f5f905090565b61093b61092c565b610946818484610907565b505050565b5b818110156109695761095e5f82610933565b60018101905061094c565b5050565b601f8211156109ae5761097f81610856565b61098884610868565b81016020851015610997578190505b6109ab6109a385610868565b83018261094b565b50505b505050565b5f82821c905092915050565b5f6109ce5f19846008026109b3565b1980831691505092915050565b5f6109e683836109bf565b9150826002028217905092915050565b6109ff82610416565b67ffffffffffffffff811115610a1857610a176104bf565b5b610a228254610717565b610a2d82828561096d565b5f60209050601f831160018114610a5e575f8415610a4c578287015190505b610a5685826109db565b865550610abd565b601f198416610a6c86610856565b5f5b82811015610a9357848901518255600182019150602085019450602081019050610a6e565b86831015610ab05784890151610aac601f8916826109bf565b8355505b6001600288020188555050505b50505050505056fea2646970667358221220131386c6cabfeb536c9ca3d08cbdc27b051dd5ccff9961881c6ea13c7a7c7b9364736f6c634300081e0033","linkReferences":{}},"methodIdentifiers":{"get()":"6d4ce63c","imageId()":"ef3f7dd5","matrix()":"32c2a966","set(bytes,bytes)":"a18c751e","verifier()":"2b7ac3f3"},"id":1}