{"abi":[{"type":"constructor","inputs":[{"name":"_verifier","type":"address","internalType":"contract IRiscZeroVerifier"}],"stateMutability":"nonpayable"},{"type":"function","name":"get","inputs":[],"outputs":[{"name":"","type":"int32[]","internalType":"int32[]"}],"stateMutability":"view"},{"type":"function","name":"imageId","inputs":[],"outputs":[{"name":"","type":"bytes32","internalType":"bytes32"}],"stateMutability":"view"},{"type":"function","name":"set","inputs":[{"name":"_sorted_array","type":"int32[]","internalType":"int32[]"},{"name":"seal","type":"bytes","internalType":"bytes"}],"outputs":[],"stateMutability":"nonpayable"},{"type":"function","name":"sorted_array","inputs":[{"name":"","type":"uint256","internalType":"uint256"}],"outputs":[{"name":"","type":"int32","internalType":"int32"}],"stateMutability":"view"},{"type":"function","name":"verifier","inputs":[],"outputs":[{"name":"","type":"address","internalType":"contract IRiscZeroVerifier"}],"stateMutability":"view"}],"bytecode":{"object":"0x60a060405234801561000f575f5ffd5b50604051610b23380380610b23833981810160405281019061003191906100da565b8073ffffffffffffffffffffffffffffffffffffffff1660808173ffffffffffffffffffffffffffffffffffffffff168152505050610105565b5f5ffd5b5f73ffffffffffffffffffffffffffffffffffffffff82169050919050565b5f6100988261006f565b9050919050565b5f6100a98261008e565b9050919050565b6100b98161009f565b81146100c3575f5ffd5b50565b5f815190506100d4816100b0565b92915050565b5f602082840312156100ef576100ee61006b565b5b5f6100fc848285016100c6565b91505092915050565b6080516109ff6101245f395f818161010101526101f501526109ff5ff3fe608060405234801561000f575f5ffd5b5060043610610055575f3560e01c80632b7ac3f3146100595780636d4ce63c14610077578063cd3164a614610095578063d2597693146100c5578063ef3f7dd5146100e1575b5f5ffd5b6100616100ff565b60405161006e9190610474565b60405180910390f35b61007f610123565b60405161008c9190610550565b60405180910390f35b6100af60048036038101906100aa91906105b4565b61019d565b6040516100bc91906105ee565b60405180910390f35b6100df60048036038101906100da91906107da565b6101d0565b005b6100e9610309565b6040516100f6919061086b565b60405180910390f35b7f000000000000000000000000000000000000000000000000000000000000000081565b60605f80548060200260200160405190810160405280929190818152602001828054801561019357602002820191905f5260205f20905f905b82829054906101000a900460030b60030b8152602001906004019060208260030104928301926001038202915080841161015c5790505b5050505050905090565b5f81815481106101ab575f80fd5b905f5260205f209060089182820401919006600402915054906101000a900460030b81565b5f836040516020016101e29190610550565b60405160208183030381529060405290507f000000000000000000000000000000000000000000000000000000000000000073ffffffffffffffffffffffffffffffffffffffff1663ab750e7584847fae3bb59b1db744de673d49e12150151908919f9d20cd4b0b9efe8560b5214b0f5f1b60028660405161026491906108d6565b602060405180830381855afa15801561027f573d5f5f3e3d5ffd5b5050506040513d601f19601f820116820180604052508101906102a29190610916565b6040518563ffffffff1660e01b81526004016102c1949392919061098b565b5f6040518083038186803b1580156102d7575f5ffd5b505afa1580156102e9573d5f5f3e3d5ffd5b50505050835f908051906020019061030292919061032f565b5050505050565b7fae3bb59b1db744de673d49e12150151908919f9d20cd4b0b9efe8560b5214b0f5f1b81565b828054828255905f5260205f20906007016008900481019282156103ce579160200282015f5b8382111561039c57835183826101000a81548163ffffffff021916908360030b63ffffffff1602179055509260200192600401602081600301049283019260010302610355565b80156103cc5782816101000a81549063ffffffff021916905560040160208160030104928301926001030261039c565b505b5090506103db91906103df565b5090565b5b808211156103f6575f815f9055506001016103e0565b5090565b5f73ffffffffffffffffffffffffffffffffffffffff82169050919050565b5f819050919050565b5f61043c610437610432846103fa565b610419565b6103fa565b9050919050565b5f61044d82610422565b9050919050565b5f61045e82610443565b9050919050565b61046e81610454565b82525050565b5f6020820190506104875f830184610465565b92915050565b5f81519050919050565b5f82825260208201905092915050565b5f819050602082019050919050565b5f8160030b9050919050565b6104cb816104b6565b82525050565b5f6104dc83836104c2565b60208301905092915050565b5f602082019050919050565b5f6104fe8261048d565b6105088185610497565b9350610513836104a7565b805f5b8381101561054357815161052a88826104d1565b9750610535836104e8565b925050600181019050610516565b5085935050505092915050565b5f6020820190508181035f83015261056881846104f4565b905092915050565b5f604051905090565b5f5ffd5b5f5ffd5b5f819050919050565b61059381610581565b811461059d575f5ffd5b50565b5f813590506105ae8161058a565b92915050565b5f602082840312156105c9576105c8610579565b5b5f6105d6848285016105a0565b91505092915050565b6105e8816104b6565b82525050565b5f6020820190506106015f8301846105df565b92915050565b5f5ffd5b5f601f19601f8301169050919050565b7f4e487b71000000000000000000000000000000000000000000000000000000005f52604160045260245ffd5b6106518261060b565b810181811067ffffffffffffffff821117156106705761066f61061b565b5b80604052505050565b5f610682610570565b905061068e8282610648565b919050565b5f67ffffffffffffffff8211156106ad576106ac61061b565b5b602082029050602081019050919050565b5f5ffd5b6106cb816104b6565b81146106d5575f5ffd5b50565b5f813590506106e6816106c2565b92915050565b5f6106fe6106f984610693565b610679565b90508083825260208201905060208402830185811115610721576107206106be565b5b835b8181101561074a578061073688826106d8565b845260208401935050602081019050610723565b5050509392505050565b5f82601f83011261076857610767610607565b5b81356107788482602086016106ec565b91505092915050565b5f5ffd5b5f5f83601f84011261079a57610799610607565b5b8235905067ffffffffffffffff8111156107b7576107b6610781565b5b6020830191508360018202830111156107d3576107d26106be565b5b9250929050565b5f5f5f604084860312156107f1576107f0610579565b5b5f84013567ffffffffffffffff81111561080e5761080d61057d565b5b61081a86828701610754565b935050602084013567ffffffffffffffff81111561083b5761083a61057d565b5b61084786828701610785565b92509250509250925092565b5f819050919050565b61086581610853565b82525050565b5f60208201905061087e5f83018461085c565b92915050565b5f81519050919050565b5f81905092915050565b8281835e5f83830152505050565b5f6108b082610884565b6108ba818561088e565b93506108ca818560208601610898565b80840191505092915050565b5f6108e182846108a6565b915081905092915050565b6108f581610853565b81146108ff575f5ffd5b50565b5f81519050610910816108ec565b92915050565b5f6020828403121561092b5761092a610579565b5b5f61093884828501610902565b91505092915050565b5f82825260208201905092915050565b828183375f83830152505050565b5f61096a8385610941565b9350610977838584610951565b6109808361060b565b840190509392505050565b5f6060820190508181035f8301526109a481868861095f565b90506109b3602083018561085c565b6109c0604083018461085c565b9594505050505056fea264697066735822122083e1db0cb7c59e1b1434131dbbd8435bb072a02ccab6f8506804b1b71402df5d64736f6c634300081e0033","linkReferences":{}},"methodIdentifiers":{"get()":"6d4ce63c","imageId()":"ef3f7dd5","set(int32[],bytes)":"d2597693","sorted_array(uint256)":"cd3164a6","verifier()":"2b7ac3f3"},"id":2}