{"abi":[{"type":"function","name":"MERGE_SORT_ID","inputs":[],"outputs":[{"name":"","type":"bytes32","internalType":"bytes32"}],"stateMutability":"view"}],"bytecode":{"object":"0x60d961004c600b8282823980515f1a6073146040577f4e487b71000000000000000000000000000000000000000000000000000000005f525f60045260245ffd5b305f52607381538281f3fe73000000000000000000000000000000000000000030146080604052600436106032575f3560e01c8063a3d38727146036575b5f5ffd5b603c6050565b60405160479190608c565b60405180910390f35b7fae3bb59b1db744de673d49e12150151908919f9d20cd4b0b9efe8560b5214b0f5f1b81565b5f819050919050565b6086816076565b82525050565b5f602082019050609d5f830184607f565b9291505056fea26469706673582212209417fab1b9fad797bb0b65159f108feaf6de73033086f3a685dd8a7174df517564736f6c634300081e0033","linkReferences":{}},"methodIdentifiers":{"MERGE_SORT_ID()":"a3d38727"},"id":1}