{"abi":[{"type":"function","name":"HEAP_SORT_PATH","inputs":[],"outputs":[{"name":"","type":"string","internalType":"string"}],"stateMutability":"view"}],"bytecode":{"object":"0x6101ac61004d600b8282823980515f1a6073146041577f4e487b71000000000000000000000000000000000000000000000000000000005f525f60045260245ffd5b305f52607381538281f3fe7300000000000000000000000000000000000000003014608060405260043610610034575f3560e01c8063dc7e351314610038575b5f5ffd5b610040610056565b60405161004d91906100e2565b60405180910390f35b6040518060a00160405280607481526020016101036074913981565b5f81519050919050565b5f82825260208201905092915050565b8281835e5f83830152505050565b5f601f19601f8301169050919050565b5f6100b482610072565b6100be818561007c565b93506100ce81856020860161008c565b6100d78161009a565b840191505092915050565b5f6020820190508181035f8301526100fa81846100aa565b90509291505056fe2f686f6d652f6761627269656c652f72697363302d746573742f686561702d736f72742f7461726765742f72697363762d67756573742f6d6574686f64732f6775657374732f72697363763332696d2d72697363302d7a6b766d2d656c662f72656c656173652f686561705f736f72742e62696ea264697066735822122079a9114bac17b48d5ad1cfb3d399da2ced160332ece2fa6fecd3b566c712e05264736f6c634300081e0033","linkReferences":{}},"methodIdentifiers":{"HEAP_SORT_PATH()":"dc7e3513"},"id":36}