{"abi":[{"type":"function","name":"toHexString","inputs":[{"name":"input","type":"bytes","internalType":"bytes"}],"outputs":[{"name":"","type":"string","internalType":"string"}],"stateMutability":"pure"}],"bytecode":{"object":"0x61071e61004d600b8282823980515f1a6073146041577f4e487b71000000000000000000000000000000000000000000000000000000005f525f60045260245ffd5b305f52607381538281f3fe7300000000000000000000000000000000000000003014608060405260043610610034575f3560e01c8063c937279314610038575b5f5ffd5b610052600480360381019061004d9190610473565b610068565b60405161005f919061051a565b60405180910390f35b6060600160027fffffffffffffffffffffffffffffffffffffffffffffffffffffffffffffffff610099919061059d565b6100a391906105cd565b8251106100ae575f5ffd5b5f7f303132333435363738396162636465660000000000000000000000000000000090505f6002845160026100e39190610600565b6100ed9190610641565b67ffffffffffffffff8111156101065761010561034f565b5b6040519080825280601f01601f1916602001820160405280156101385781602001600182028036833780820191505090505b5090507f3000000000000000000000000000000000000000000000000000000000000000815f8151811061016f5761016e610674565b5b60200101907effffffffffffffffffffffffffffffffffffffffffffffffffffffffffffff191690815f1a9053507f7800000000000000000000000000000000000000000000000000000000000000816001815181106101d2576101d1610674565b5b60200101907effffffffffffffffffffffffffffffffffffffffffffffffffffffffffffff191690815f1a9053505f600290505f855190505f5f90505b81811015610319575f87828151811061022b5761022a610674565b5b602001015160f81c60f81b60f81c60ff16905085600482901c6010811061025557610254610674565b5b1a60f81b858580610265906106a1565b96508151811061027857610277610674565b5b60200101907effffffffffffffffffffffffffffffffffffffffffffffffffffffffffffff191690815f1a90535085600f8216601081106102bc576102bb610674565b5b1a60f81b8585806102cc906106a1565b9650815181106102df576102de610674565b5b60200101907effffffffffffffffffffffffffffffffffffffffffffffffffffffffffffff191690815f1a9053505080600101905061020f565b5082945050505050919050565b5f604051905090565b5f5ffd5b5f5ffd5b5f5ffd5b5f5ffd5b5f601f19601f8301169050919050565b7f4e487b71000000000000000000000000000000000000000000000000000000005f52604160045260245ffd5b6103858261033f565b810181811067ffffffffffffffff821117156103a4576103a361034f565b5b80604052505050565b5f6103b6610326565b90506103c2828261037c565b919050565b5f67ffffffffffffffff8211156103e1576103e061034f565b5b6103ea8261033f565b9050602081019050919050565b828183375f83830152505050565b5f610417610412846103c7565b6103ad565b9050828152602081018484840111156104335761043261033b565b5b61043e8482856103f7565b509392505050565b5f82601f83011261045a57610459610337565b5b813561046a848260208601610405565b91505092915050565b5f602082840312156104885761048761032f565b5b5f82013567ffffffffffffffff8111156104a5576104a4610333565b5b6104b184828501610446565b91505092915050565b5f81519050919050565b5f82825260208201905092915050565b8281835e5f83830152505050565b5f6104ec826104ba565b6104f681856104c4565b93506105068185602086016104d4565b61050f8161033f565b840191505092915050565b5f6020820190508181035f83015261053281846104e2565b905092915050565b5f819050919050565b7f4e487b71000000000000000000000000000000000000000000000000000000005f52601260045260245ffd5b7f4e487b71000000000000000000000000000000000000000000000000000000005f52601160045260245ffd5b5f6105a78261053a565b91506105b28361053a565b9250826105c2576105c1610543565b5b828204905092915050565b5f6105d78261053a565b91506105e28361053a565b92508282039050818111156105fa576105f9610570565b5b92915050565b5f61060a8261053a565b91506106158361053a565b92508282026106238161053a565b9150828204841483151761063a57610639610570565b5b5092915050565b5f61064b8261053a565b91506106568361053a565b925082820190508082111561066e5761066d610570565b5b92915050565b7f4e487b71000000000000000000000000000000000000000000000000000000005f52603260045260245ffd5b5f6106ab8261053a565b91507fffffffffffffffffffffffffffffffffffffffffffffffffffffffffffffffff82036106dd576106dc610570565b5b60018201905091905056fea2646970667358221220cf42ba61b03d3ebeb76ab8c7b018617a9ea92749d9e3c996ae1373784f0ee5aa64736f6c634300081e0033","linkReferences":{}},"methodIdentifiers":{"toHexString(bytes)":"c9372793"},"id":12}